:0400000081EF03F099
:100600000000000E936E000E096E000E086E09BE0B
:1006100013EF03F0095009E1080E085CD8A013EFAE
:1006200003F015EF03F017EF03F02EEF03F008C00F
:1006300005F0800E066E000E076E052A23EF03F00C
:10064000073407320632052E20EF03F00650816E84
:1006500058EC03F0084A092A07EF03F0000E0B6E6E
:10066000000E0A6E0BBE3EEF03F00B5009E1080EC0
:100670000A5CD8A03EEF03F040EF03F042EF03F036
:1006800003EF03F00AC005F0010E066E052A4BEFDA
:1006900003F0D8900636052E49EF03F00650816E20
:1006A00058EC03F00A4A0B2A32EF03F000EF00F097
:1006B000000E026E000E016E000E046E000E036E40
:1006C000034A042A04BE6EEF03F0045009E1640EED
:1006D000035CD8A06EEF03F070EF03F060EF03F05F
:1006E000014A022A02BE7EEF03F0025009E1640EC5
:1006F000015CD8A07EEF03F080EF03F05CEF03F025
:080700001200000101EF03F0FB
:00000001FF
